{
  "_format": "hh-sol-artifact-1",
  "contractName": "SmartWallet",
  "sourceName": "contracts/SmartWallet.sol",
  "abi": [
    {
      "inputs": [
        {
          "internalType": "address",
          "name": "_owner",
          "type": "address"
        }
      ],
      "stateMutability": "nonpayable",
      "type": "constructor"
    },
    {
      "anonymous": false,
      "inputs": [
        {
          "indexed": true,
          "internalType": "address",
          "name": "sender",
          "type": "address"
        },
        {
          "indexed": false,
          "internalType": "uint256",
          "name": "amount",
          "type": "uint256"
        }
      ],
      "name": "Deposit",
      "type": "event"
    },
    {
      "anonymous": false,
      "inputs": [
        {
          "indexed": true,
          "internalType": "address",
          "name": "receiver",
          "type": "address"
        },
        {
          "indexed": false,
          "internalType": "uint256",
          "name": "amount",
          "type": "uint256"
        }
      ],
      "name": "Withdrawal",
      "type": "event"
    },
    {
      "inputs": [
        {
          "internalType": "address",
          "name": "_destroyer",
          "type": "address"
        }
      ],
      "name": "authorizeDestroyer",
      "outputs": [],
      "stateMutability": "nonpayable",
      "type": "function"
    },
    {
      "inputs": [],
      "name": "deposit",
      "outputs": [],
      "stateMutability": "payable",
      "type": "function"
    },
    {
      "inputs": [],
      "name": "destroy",
      "outputs": [],
      "stateMutability": "nonpayable",
      "type": "function"
    },
    {
      "inputs": [],
      "name": "getBalance",
      "outputs": [
        {
          "internalType": "uint256",
          "name": "",
          "type": "uint256"
        }
      ],
      "stateMutability": "view",
      "type": "function"
    },
    {
      "inputs": [],
      "name": "owner",
      "outputs": [
        {
          "internalType": "address",
          "name": "",
          "type": "address"
        }
      ],
      "stateMutability": "view",
      "type": "function"
    },
    {
      "inputs": [
        {
          "internalType": "uint256",
          "name": "_amount",
          "type": "uint256"
        }
      ],
      "name": "withdraw",
      "outputs": [],
      "stateMutability": "nonpayable",
      "type": "function"
    },
    {
      "stateMutability": "payable",
      "type": "receive"
    }
  ],
  "bytecode": "0x608060405234801561001057600080fd5b50604051610b49380380610b498339818101604052810190610032919061011c565b806000806101000a81548173ffffffffffffffffffffffffffffffffffffffff021916908373ffffffffffffffffffffffffffffffffffffffff16021790555033600160006101000a81548173ffffffffffffffffffffffffffffffffffffffff021916908373ffffffffffffffffffffffffffffffffffffffff16021790555050610149565b600080fd5b600073ffffffffffffffffffffffffffffffffffffffff82169050919050565b60006100e9826100be565b9050919050565b6100f9816100de565b811461010457600080fd5b50565b600081519050610116816100f0565b92915050565b600060208284031215610132576101316100b9565b5b600061014084828501610107565b91505092915050565b6109f1806101586000396000f3fe6080604052600436106100595760003560e01c806312065fe0146100b35780632e1a7d4d146100de5780636a0b2b8d1461010757806383197ef0146101305780638da5cb5b14610147578063d0e30db014610172576100ae565b366100ae573373ffffffffffffffffffffffffffffffffffffffff167fe1fffcc4923d04b559f4d29a8bfc6cda04eb5b0d3c460751c2402c5c5cc9109c346040516100a491906105ee565b60405180910390a2005b600080fd5b3480156100bf57600080fd5b506100c861017c565b6040516100d591906105ee565b60405180910390f35b3480156100ea57600080fd5b506101056004803603810190610100919061063a565b610184565b005b34801561011357600080fd5b5061012e600480360381019061012991906106c5565b61032d565b005b34801561013c57600080fd5b506101456103ff565b005b34801561015357600080fd5b5061015c61051e565b6040516101699190610701565b60405180910390f35b61017a610542565b005b600047905090565b60008054906101000a900473ffffffffffffffffffffffffffffffffffffffff1673ffffffffffffffffffffffffffffffffffffffff163373ffffffffffffffffffffffffffffffffffffffff1614610212576040517f08c379a000000000000000000000000000000000000000000000000000000000815260040161020990610779565b60405180910390fd5b80471015610255576040517f08c379a000000000000000000000000000000000000000000000000000000000815260040161024c906107e5565b60405180910390fd5b60008054906101000a900473ffffffffffffffffffffffffffffffffffffffff1673ffffffffffffffffffffffffffffffffffffffff166108fc829081150290604051600060405180830381858888f193505050501580156102bb573d6000803e3d6000fd5b5060008054906101000a900473ffffffffffffffffffffffffffffffffffffffff1673ffffffffffffffffffffffffffffffffffffffff167f7fcf532c15f0a6db0bd6d0e038bea71d30d808c7d98cb3bf7268a95bf5081b658260405161032291906105ee565b60405180910390a250565b60008054906101000a900473ffffffffffffffffffffffffffffffffffffffff1673ffffffffffffffffffffffffffffffffffffffff163373ffffffffffffffffffffffffffffffffffffffff16146103bb576040517f08c379a00000000000000000000000000000000000000000000000000000000081526004016103b290610877565b60405180910390fd5b80600160006101000a81548173ffffffffffffffffffffffffffffffffffffffff021916908373ffffffffffffffffffffffffffffffffffffffff16021790555050565b60008054906101000a900473ffffffffffffffffffffffffffffffffffffffff1673ffffffffffffffffffffffffffffffffffffffff163373ffffffffffffffffffffffffffffffffffffffff1614806104a65750600160009054906101000a900473ffffffffffffffffffffffffffffffffffffffff1673ffffffffffffffffffffffffffffffffffffffff163373ffffffffffffffffffffffffffffffffffffffff16145b6104e5576040517f08c379a00000000000000000000000000000000000000000000000000000000081526004016104dc90610909565b60405180910390fd5b60008054906101000a900473ffffffffffffffffffffffffffffffffffffffff1673ffffffffffffffffffffffffffffffffffffffff16ff5b60008054906101000a900473ffffffffffffffffffffffffffffffffffffffff1681565b60003411610585576040517f08c379a000000000000000000000000000000000000000000000000000000000815260040161057c9061099b565b60405180910390fd5b3373ffffffffffffffffffffffffffffffffffffffff167fe1fffcc4923d04b559f4d29a8bfc6cda04eb5b0d3c460751c2402c5c5cc9109c346040516105cb91906105ee565b60405180910390a2565b6000819050919050565b6105e8816105d5565b82525050565b600060208201905061060360008301846105df565b92915050565b600080fd5b610617816105d5565b811461062257600080fd5b50565b6000813590506106348161060e565b92915050565b6000602082840312156106505761064f610609565b5b600061065e84828501610625565b91505092915050565b600073ffffffffffffffffffffffffffffffffffffffff82169050919050565b600061069282610667565b9050919050565b6106a281610687565b81146106ad57600080fd5b50565b6000813590506106bf81610699565b92915050565b6000602082840312156106db576106da610609565b5b60006106e9848285016106b0565b91505092915050565b6106fb81610687565b82525050565b600060208201905061071660008301846106f2565b92915050565b600082825260208201905092915050565b7f43616c6c6572206973206e6f74206f776e657200000000000000000000000000600082015250565b600061076360138361071c565b915061076e8261072d565b602082019050919050565b6000602082019050818103600083015261079281610756565b9050919050565b7f496e73756666696369656e742062616c616e6365000000000000000000000000600082015250565b60006107cf60148361071c565b91506107da82610799565b602082019050919050565b600060208201905081810360008301526107fe816107c2565b9050919050565b7f4f6e6c7920746865206f776e65722063616e20617574686f72697a652061206460008201527f657374726f796572000000000000000000000000000000000000000000000000602082015250565b600061086160288361071c565b915061086c82610805565b604082019050919050565b6000602082019050818103600083015261089081610854565b9050919050565b7f43616c6c6572206973206e6f7420617574686f72697a656420746f206465737460008201527f726f790000000000000000000000000000000000000000000000000000000000602082015250565b60006108f360238361071c565b91506108fe82610897565b604082019050919050565b60006020820190508181036000830152610922816108e6565b9050919050565b7f4465706f73697420616d6f756e74206d7573742062652067726561746572207460008201527f68616e2030000000000000000000000000000000000000000000000000000000602082015250565b600061098560258361071c565b915061099082610929565b604082019050919050565b600060208201905081810360008301526109b481610978565b905091905056fea264697066735822122019aa1a592940902a6e8f274f813ca7ee187e04d2ff3b701e3613babcc500052164736f6c63430008140033",
  "linkReferences": {},
  "deployedLinkReferences": {}
}